
Week 4.elf:     file format elf32-avr

Sections:
Idx Name          Size      VMA       LMA       File off  Algn
  0 .data         00000000  00800100  000001aa  0000021e  2**0
                  CONTENTS, ALLOC, LOAD, DATA
  1 .text         000001aa  00000000  00000000  00000074  2**1
                  CONTENTS, ALLOC, LOAD, READONLY, CODE
  2 .stab         000006cc  00000000  00000000  00000220  2**2
                  CONTENTS, READONLY, DEBUGGING
  3 .stabstr      00000097  00000000  00000000  000008ec  2**0
                  CONTENTS, READONLY, DEBUGGING
  4 .comment      0000002f  00000000  00000000  00000983  2**0
                  CONTENTS, READONLY
  5 .debug_aranges 000001a0  00000000  00000000  000009b2  2**0
                  CONTENTS, READONLY, DEBUGGING
  6 .debug_info   0000210c  00000000  00000000  00000b52  2**0
                  CONTENTS, READONLY, DEBUGGING
  7 .debug_abbrev 000003de  00000000  00000000  00002c5e  2**0
                  CONTENTS, READONLY, DEBUGGING
  8 .debug_line   0000170b  00000000  00000000  0000303c  2**0
                  CONTENTS, READONLY, DEBUGGING
  9 .debug_frame  0000039c  00000000  00000000  00004748  2**2
                  CONTENTS, READONLY, DEBUGGING
 10 .debug_str    00000348  00000000  00000000  00004ae4  2**0
                  CONTENTS, READONLY, DEBUGGING
 11 .debug_loc    00000858  00000000  00000000  00004e2c  2**0
                  CONTENTS, READONLY, DEBUGGING
 12 .debug_ranges 00000188  00000000  00000000  00005684  2**0
                  CONTENTS, READONLY, DEBUGGING

Disassembly of section .text:

00000000 <__vectors>:
   0:	45 c0       	rjmp	.+138    	; 0x8c <__ctors_end>
   2:	00 00       	nop
   4:	58 c0       	rjmp	.+176    	; 0xb6 <__bad_interrupt>
   6:	00 00       	nop
   8:	56 c0       	rjmp	.+172    	; 0xb6 <__bad_interrupt>
   a:	00 00       	nop
   c:	54 c0       	rjmp	.+168    	; 0xb6 <__bad_interrupt>
   e:	00 00       	nop
  10:	52 c0       	rjmp	.+164    	; 0xb6 <__bad_interrupt>
  12:	00 00       	nop
  14:	50 c0       	rjmp	.+160    	; 0xb6 <__bad_interrupt>
  16:	00 00       	nop
  18:	4e c0       	rjmp	.+156    	; 0xb6 <__bad_interrupt>
  1a:	00 00       	nop
  1c:	4c c0       	rjmp	.+152    	; 0xb6 <__bad_interrupt>
  1e:	00 00       	nop
  20:	4a c0       	rjmp	.+148    	; 0xb6 <__bad_interrupt>
  22:	00 00       	nop
  24:	48 c0       	rjmp	.+144    	; 0xb6 <__bad_interrupt>
  26:	00 00       	nop
  28:	46 c0       	rjmp	.+140    	; 0xb6 <__bad_interrupt>
  2a:	00 00       	nop
  2c:	44 c0       	rjmp	.+136    	; 0xb6 <__bad_interrupt>
  2e:	00 00       	nop
  30:	42 c0       	rjmp	.+132    	; 0xb6 <__bad_interrupt>
  32:	00 00       	nop
  34:	40 c0       	rjmp	.+128    	; 0xb6 <__bad_interrupt>
  36:	00 00       	nop
  38:	3e c0       	rjmp	.+124    	; 0xb6 <__bad_interrupt>
  3a:	00 00       	nop
  3c:	3c c0       	rjmp	.+120    	; 0xb6 <__bad_interrupt>
  3e:	00 00       	nop
  40:	3a c0       	rjmp	.+116    	; 0xb6 <__bad_interrupt>
  42:	00 00       	nop
  44:	38 c0       	rjmp	.+112    	; 0xb6 <__bad_interrupt>
  46:	00 00       	nop
  48:	36 c0       	rjmp	.+108    	; 0xb6 <__bad_interrupt>
  4a:	00 00       	nop
  4c:	34 c0       	rjmp	.+104    	; 0xb6 <__bad_interrupt>
  4e:	00 00       	nop
  50:	32 c0       	rjmp	.+100    	; 0xb6 <__bad_interrupt>
  52:	00 00       	nop
  54:	30 c0       	rjmp	.+96     	; 0xb6 <__bad_interrupt>
  56:	00 00       	nop
  58:	2e c0       	rjmp	.+92     	; 0xb6 <__bad_interrupt>
  5a:	00 00       	nop
  5c:	2c c0       	rjmp	.+88     	; 0xb6 <__bad_interrupt>
  5e:	00 00       	nop
  60:	2a c0       	rjmp	.+84     	; 0xb6 <__bad_interrupt>
  62:	00 00       	nop
  64:	28 c0       	rjmp	.+80     	; 0xb6 <__bad_interrupt>
  66:	00 00       	nop
  68:	26 c0       	rjmp	.+76     	; 0xb6 <__bad_interrupt>
  6a:	00 00       	nop
  6c:	24 c0       	rjmp	.+72     	; 0xb6 <__bad_interrupt>
  6e:	00 00       	nop
  70:	22 c0       	rjmp	.+68     	; 0xb6 <__bad_interrupt>
  72:	00 00       	nop
  74:	20 c0       	rjmp	.+64     	; 0xb6 <__bad_interrupt>
  76:	00 00       	nop
  78:	1e c0       	rjmp	.+60     	; 0xb6 <__bad_interrupt>
  7a:	00 00       	nop
  7c:	1c c0       	rjmp	.+56     	; 0xb6 <__bad_interrupt>
  7e:	00 00       	nop
  80:	1a c0       	rjmp	.+52     	; 0xb6 <__bad_interrupt>
  82:	00 00       	nop
  84:	18 c0       	rjmp	.+48     	; 0xb6 <__bad_interrupt>
  86:	00 00       	nop
  88:	16 c0       	rjmp	.+44     	; 0xb6 <__bad_interrupt>
	...

0000008c <__ctors_end>:
  8c:	11 24       	eor	r1, r1
  8e:	1f be       	out	0x3f, r1	; 63
  90:	cf ef       	ldi	r28, 0xFF	; 255
  92:	d0 e1       	ldi	r29, 0x10	; 16
  94:	de bf       	out	0x3e, r29	; 62
  96:	cd bf       	out	0x3d, r28	; 61

00000098 <__do_copy_data>:
  98:	11 e0       	ldi	r17, 0x01	; 1
  9a:	a0 e0       	ldi	r26, 0x00	; 0
  9c:	b1 e0       	ldi	r27, 0x01	; 1
  9e:	ea ea       	ldi	r30, 0xAA	; 170
  a0:	f1 e0       	ldi	r31, 0x01	; 1
  a2:	00 e0       	ldi	r16, 0x00	; 0
  a4:	0b bf       	out	0x3b, r16	; 59
  a6:	02 c0       	rjmp	.+4      	; 0xac <__do_copy_data+0x14>
  a8:	07 90       	elpm	r0, Z+
  aa:	0d 92       	st	X+, r0
  ac:	a0 30       	cpi	r26, 0x00	; 0
  ae:	b1 07       	cpc	r27, r17
  b0:	d9 f7       	brne	.-10     	; 0xa8 <__do_copy_data+0x10>
  b2:	77 d0       	rcall	.+238    	; 0x1a2 <main>
  b4:	78 c0       	rjmp	.+240    	; 0x1a6 <_exit>

000000b6 <__bad_interrupt>:
  b6:	a4 cf       	rjmp	.-184    	; 0x0 <__vectors>

000000b8 <timer2Init>:
#define BIT(x)			(1 << (x))

// Initialize timer 1: fast PWM at pin PORTB.6 (hundredth ms)
void timer2Init( void )
{
	OCR1A = 0;						// default, off  (RED)
  b8:	1b bc       	out	0x2b, r1	; 43
  ba:	1a bc       	out	0x2a, r1	; 42
	OCR1B = 0;						// default, off	(GREEN)
  bc:	19 bc       	out	0x29, r1	; 41
  be:	18 bc       	out	0x28, r1	; 40
	OCR1C = 0;						// default, off	(BLUE)
  c0:	10 92 79 00 	sts	0x0079, r1
  c4:	10 92 78 00 	sts	0x0078, r1
	TCCR1A = 0b10101001;				// compare output OC1A,OC1B,OC1C
  c8:	89 ea       	ldi	r24, 0xA9	; 169
  ca:	8f bd       	out	0x2f, r24	; 47
	TCCR1B = 0b00001011;				// fast PWM 8 bit, prescaler=64, RUN
  cc:	8b e0       	ldi	r24, 0x0B	; 11
  ce:	8e bd       	out	0x2e, r24	; 46
  d0:	08 95       	ret

000000d2 <setRed>:
}

// Set pulse width for RED on pin PB5, 0=off, 255=max
void setRed( unsigned char redValue )
{
	OCR1A = redValue;
  d2:	90 e0       	ldi	r25, 0x00	; 0
  d4:	9b bd       	out	0x2b, r25	; 43
  d6:	8a bd       	out	0x2a, r24	; 42
  d8:	08 95       	ret

000000da <setBlue>:
}

void setBlue( unsigned char blueValue )
{
	OCR1B = blueValue;
  da:	90 e0       	ldi	r25, 0x00	; 0
  dc:	99 bd       	out	0x29, r25	; 41
  de:	88 bd       	out	0x28, r24	; 40
  e0:	08 95       	ret

000000e2 <setGreen>:
}
void setGreen( unsigned char greenValue )
{
	OCR1C = greenValue;
  e2:	90 e0       	ldi	r25, 0x00	; 0
  e4:	90 93 79 00 	sts	0x0079, r25
  e8:	80 93 78 00 	sts	0x0078, r24
  ec:	08 95       	ret

000000ee <main4_2>:
}

// Main program: Counting on T1
int main4_2( void )
{
	DDRB = 0xFF;						// set PORTB for compare output 
  ee:	8f ef       	ldi	r24, 0xFF	; 255
  f0:	87 bb       	out	0x17, r24	; 23
	timer2Init();					// initialize PWM on timer1
  f2:	e2 df       	rcall	.-60     	; 0xb8 <timer2Init>
	wait(500);
  f4:	84 ef       	ldi	r24, 0xF4	; 244
  f6:	91 e0       	ldi	r25, 0x01	; 1
  f8:	43 d0       	rcall	.+134    	; 0x180 <wait>
	{
		// change intensity color in steps of 100 ms - fading
		int deltaBlue = 1;
		int deltaRed = 1;
		int deltaGreen = 1;
		for (int blue = 0; blue<=255; blue+=deltaBlue){
  fa:	c1 2c       	mov	r12, r1
  fc:	d1 2c       	mov	r13, r1
	while (1)
	{
		// change intensity color in steps of 100 ms - fading
		int deltaBlue = 1;
		int deltaRed = 1;
		int deltaGreen = 1;
  fe:	ee 24       	eor	r14, r14
 100:	e3 94       	inc	r14
 102:	f1 2c       	mov	r15, r1
	wait(500);
	while (1)
	{
		// change intensity color in steps of 100 ms - fading
		int deltaBlue = 1;
		int deltaRed = 1;
 104:	44 24       	eor	r4, r4
 106:	43 94       	inc	r4
 108:	51 2c       	mov	r5, r1
	timer2Init();					// initialize PWM on timer1
	wait(500);
	while (1)
	{
		// change intensity color in steps of 100 ms - fading
		int deltaBlue = 1;
 10a:	aa 24       	eor	r10, r10
 10c:	a3 94       	inc	r10
 10e:	b1 2c       	mov	r11, r1
		int deltaRed = 1;
		int deltaGreen = 1;
		for (int blue = 0; blue<=255; blue+=deltaBlue){
			setBlue( blue );				
			for(int green = 0; green<=255;green+=deltaGreen){
 110:	81 2c       	mov	r8, r1
 112:	91 2c       	mov	r9, r1
				setGreen(green);
				for(int red = 0; red<=255;red+=deltaRed){
 114:	28 2c       	mov	r2, r8
 116:	39 2c       	mov	r3, r9
	wait(500);
	while (1)
	{
		// change intensity color in steps of 100 ms - fading
		int deltaBlue = 1;
		int deltaRed = 1;
 118:	66 24       	eor	r6, r6
 11a:	63 94       	inc	r6
 11c:	71 2c       	mov	r7, r1
 11e:	02 c0       	rjmp	.+4      	; 0x124 <main4_2+0x36>
		int deltaGreen = 1;
		for (int blue = 0; blue<=255; blue+=deltaBlue){
 120:	24 01       	movw	r4, r8
 122:	72 01       	movw	r14, r4
			setBlue( blue );				
 124:	8c 2d       	mov	r24, r12
 126:	d9 df       	rcall	.-78     	; 0xda <setBlue>
			for(int green = 0; green<=255;green+=deltaGreen){
 128:	84 01       	movw	r16, r8
				setGreen(green);
 12a:	80 2f       	mov	r24, r16
 12c:	da df       	rcall	.-76     	; 0xe2 <setGreen>
				for(int red = 0; red<=255;red+=deltaRed){
 12e:	c2 2d       	mov	r28, r2
 130:	d3 2d       	mov	r29, r3
					wait(50);
 132:	82 e3       	ldi	r24, 0x32	; 50
 134:	90 e0       	ldi	r25, 0x00	; 0
 136:	24 d0       	rcall	.+72     	; 0x180 <wait>
					setRed(red);									
 138:	8c 2f       	mov	r24, r28
 13a:	cb df       	rcall	.-106    	; 0xd2 <setRed>
					deltaRed += 2;									
 13c:	82 e0       	ldi	r24, 0x02	; 2
 13e:	48 0e       	add	r4, r24
 140:	51 1c       	adc	r5, r1
		int deltaGreen = 1;
		for (int blue = 0; blue<=255; blue+=deltaBlue){
			setBlue( blue );				
			for(int green = 0; green<=255;green+=deltaGreen){
				setGreen(green);
				for(int red = 0; red<=255;red+=deltaRed){
 142:	c4 0d       	add	r28, r4
 144:	d5 1d       	adc	r29, r5
 146:	cf 3f       	cpi	r28, 0xFF	; 255
 148:	d1 05       	cpc	r29, r1
 14a:	99 f3       	breq	.-26     	; 0x132 <main4_2+0x44>
 14c:	94 f3       	brlt	.-28     	; 0x132 <main4_2+0x44>
					wait(50);
					setRed(red);									
					deltaRed += 2;									
				}
				deltaRed = 0;
				deltaGreen += 2;		
 14e:	82 e0       	ldi	r24, 0x02	; 2
 150:	e8 0e       	add	r14, r24
 152:	f1 1c       	adc	r15, r1
		int deltaBlue = 1;
		int deltaRed = 1;
		int deltaGreen = 1;
		for (int blue = 0; blue<=255; blue+=deltaBlue){
			setBlue( blue );				
			for(int green = 0; green<=255;green+=deltaGreen){
 154:	0e 0d       	add	r16, r14
 156:	1f 1d       	adc	r17, r15
				for(int red = 0; red<=255;red+=deltaRed){
					wait(50);
					setRed(red);									
					deltaRed += 2;									
				}
				deltaRed = 0;
 158:	42 2c       	mov	r4, r2
 15a:	53 2c       	mov	r5, r3
		int deltaBlue = 1;
		int deltaRed = 1;
		int deltaGreen = 1;
		for (int blue = 0; blue<=255; blue+=deltaBlue){
			setBlue( blue );				
			for(int green = 0; green<=255;green+=deltaGreen){
 15c:	0f 3f       	cpi	r16, 0xFF	; 255
 15e:	11 05       	cpc	r17, r1
 160:	21 f3       	breq	.-56     	; 0x12a <main4_2+0x3c>
 162:	1c f3       	brlt	.-58     	; 0x12a <main4_2+0x3c>
				}
				deltaRed = 0;
				deltaGreen += 2;		
			}
			deltaGreen = 0;
			deltaBlue += 2;	
 164:	82 e0       	ldi	r24, 0x02	; 2
 166:	a8 0e       	add	r10, r24
 168:	b1 1c       	adc	r11, r1
	{
		// change intensity color in steps of 100 ms - fading
		int deltaBlue = 1;
		int deltaRed = 1;
		int deltaGreen = 1;
		for (int blue = 0; blue<=255; blue+=deltaBlue){
 16a:	ca 0c       	add	r12, r10
 16c:	db 1c       	adc	r13, r11
 16e:	8f ef       	ldi	r24, 0xFF	; 255
 170:	c8 16       	cp	r12, r24
 172:	d1 04       	cpc	r13, r1
 174:	a9 f2       	breq	.-86     	; 0x120 <main4_2+0x32>
 176:	a4 f2       	brlt	.-88     	; 0x120 <main4_2+0x32>
 178:	64 01       	movw	r12, r8
	wait(500);
	while (1)
	{
		// change intensity color in steps of 100 ms - fading
		int deltaBlue = 1;
		int deltaRed = 1;
 17a:	23 01       	movw	r4, r6
	timer2Init();					// initialize PWM on timer1
	wait(500);
	while (1)
	{
		// change intensity color in steps of 100 ms - fading
		int deltaBlue = 1;
 17c:	53 01       	movw	r10, r6
 17e:	d1 cf       	rjmp	.-94     	; 0x122 <main4_2+0x34>

00000180 <wait>:

// wait(): busy waiting for 'ms' millisecond
// Used library: util/delay.h
void wait( int ms )
{
	for (int i=0; i<ms; i++)
 180:	18 16       	cp	r1, r24
 182:	19 06       	cpc	r1, r25
 184:	6c f4       	brge	.+26     	; 0x1a0 <wait+0x20>
 186:	20 e0       	ldi	r18, 0x00	; 0
 188:	30 e0       	ldi	r19, 0x00	; 0
	#else
		//round up by default
		__ticks_dc = (uint32_t)(ceil(fabs(__tmp)));
	#endif

	__builtin_avr_delay_cycles(__ticks_dc);
 18a:	e9 ef       	ldi	r30, 0xF9	; 249
 18c:	f0 e0       	ldi	r31, 0x00	; 0
 18e:	31 97       	sbiw	r30, 0x01	; 1
 190:	f1 f7       	brne	.-4      	; 0x18e <wait+0xe>
 192:	00 c0       	rjmp	.+0      	; 0x194 <wait+0x14>
 194:	00 00       	nop
 196:	2f 5f       	subi	r18, 0xFF	; 255
 198:	3f 4f       	sbci	r19, 0xFF	; 255
 19a:	28 17       	cp	r18, r24
 19c:	39 07       	cpc	r19, r25
 19e:	a9 f7       	brne	.-22     	; 0x18a <wait+0xa>
 1a0:	08 95       	ret

000001a2 <main>:
}
int main(void)
{
    while(1)
    {		
        main4_2();
 1a2:	a5 df       	rcall	.-182    	; 0xee <main4_2>
 1a4:	fe cf       	rjmp	.-4      	; 0x1a2 <main>

000001a6 <_exit>:
 1a6:	f8 94       	cli

000001a8 <__stop_program>:
 1a8:	ff cf       	rjmp	.-2      	; 0x1a8 <__stop_program>
